:020000040040BA
:1000000000130020810540007D0540007D05400073
:100010007D0540007D0540007D054000000000009A
:100020000000000000000000000000007D0540000E
:100030007D054000000000007D0540007D0540007A
:100040007D0540007D0540007D0540007D054000A8
:100050007D0540007D0540007D054000000000005A
:100060007D0540007D054000000000007D0540004A
:100070007D054000000000007D0540007D0540003A
:1000800000000000000000007D0540007D054000EC
:100090007D0540007D0540007D0540007D05400058
:1000A0007D0540007D0540000000000000000000CC
:1000B000000000007D0540007D0540007D054000FA
:1000C0007D0540007D0540007D0540000348044B50
:1000D000834202D0034B03B118477047200F400002
:1000E000200F400000000000054806490B1AD90FF8
:1000F00001EBA301491002D0034B03B1184770472D
:10010000200F4000200F40000000000010B5064CFA
:10011000237843B9FFF7DAFF044B13B10448AFF378
:1001200000800123237010BD140100200000000096
:10013000200F400008B5044B1BB104490448AFF33D
:100140000080BDE80840CFE7000000001801002053
:10015000200F4000002070470278437843EA0223D2
:10016000014A0020138070470000002008B5024BB0
:100170009847002008BD00BF910E400008B5024B13
:100180009847002008BD00BF7D0E400010B50A4B07
:1001900004469847094B98472046094B9847094B16
:1001A00098472046084B9847084B2246102172205A
:1001B0009847002010BD00BF8D0E40007907400019
:1001C000850E4000590740008F0E4000D9034000C3
:1001D0002DE9F0410E4B0F4E0F4FDFF84C800446D7
:1001E000984700253388AB420AD820460B4B9847E6
:1001F0000B4B22461021722098470020BDE8F08169
:10020000B8472046C047074B98470135EAE700BF8B
:100210008D0E400000000020790740008F0E400046
:10022000D903400059074000850E40001FB51C4B04
:100230006A4603F11006154618685968144603C447
:100240000833B3422246F7D1164B174C9847174B49
:100250009847174B9847174B98472846164B174D0A
:100260009847174B9847174A10216B20A047164A0A
:1002700010217020A047154A00217820A0470123B3
:10028000134A12216D20A847124A02217320A04769
:10029000114A10216620A047104CA047FDE700BF7F
:1002A000DC0E4000FD05400095034000950640002F
:1002B00039074000790E40007D0E40005D0340008C
:1002C000A50340007D0140008D0140005501400024
:1002D0006D01400059014000D1014000A5044000DB
:1002E00001207047F0B500234F1C834201DB002042
:1002F00020E017F8135011F81340A5F13006F6B2BC
:10030000092E0BD8D654A4F13005EEB2092E14D81C
:10031000D45C44EA0514D4540133E6E7A5F1410660
:10032000052E02D8373DD554EDE7A5F16106052E1F
:1003300001D90120F0BD573DF5E7A4F14105052D98
:1003400002D8A4F13705E3E7A4F16105052DF0D843
:10035000D55C573C45EA0414DDE70000F0B50B4ED0
:1003600034680F2C0FDCFF290DD8094F07EB04155B
:100370004FEA041CC5E90112013407F80C002B7385
:1003800034600020F0BD0120FCE700BF30020020F7
:100390003001002010B4024C0023A44610BC60477A
:1003A0005D03400010B5084A084C00217620A047A4
:1003B000074A00217720A0472346064ABDE810409F
:1003C00000217920184700BFE1024000950340005A
:1003D00049044000210440002DE9F0410E4CDFF8B3
:1003E0003C8015460F46A0476E1EC5F10105AB19AE
:1003F0009F4204DC23460A20BDE8F041184716F866
:10040000013F1B0918F80300A047337803F00F03DE
:1004100018F80300A047EAE7F9064000ED0E400097
:1004200007B5074B1B688DF807300DF10702054B28
:10043000012172209847002003B05DF804FB00BF43
:1004400030020020D903400070B5134B134C1968DB
:100450008CB0CDB20020C3B2AB4200F1010009DB89
:1004600001EB41010E4B6A46C9B272209847002049
:100470000CB070BD03EB43020CAE32441E0104EB22
:100480000313A65D02F8306C5E681B7B02F82F6CCC
:1004900002F82E3CDFE700BF3002002030010020D0
:1004A000D90340002DE9F0432F4EADF5437DB04711
:1004B0002E4B2F491A68C0B200239A4204DC07D1A0
:1004C0000DF5437DBDE8F0831C01645C84423ED1A0
:1004D000274D05EB03141F01237BDB0712D50023F7
:1004E0008DF80830B0478DF80801B047214B8DF8E2
:1004F000090102AA42A9012098470028E0D19DF8ED
:1005000008306360002405EB07080DF58479D8F8FE
:100510000430B4EB430F1CD3B047C0B20A2801D05B
:100520000D28CDD13D44134B6C6802AA42A9204648
:1005300098470028C4D1AB68E1B202A898470E4B97
:100540008DF8040001AA01217A209847B8E7013309
:10055000B3E7B047C0B20A28B2D00D28B0D004F833
:1005600009000134D3E700BF150740003002002026
:1005700030010020E5024000D9034000FEE7000002
:1005800008B5154A154B9A4215D915498B420DD31A
:1005900000BF144B144A002193421AD3134B144A40
:1005A0009A60144B9847144B9847FEE752F8040B97
:1005B00043F8040BEAE7EBD20949101FCB1A0344B6
:1005C000C2F10402D342E3D053F8040941F8040D08
:1005D000F8E743F8041BDFE7200F4000000000208D
:1005E0001401002014010020FC02002000ED00E0B6
:1005F00000004000950E40002D024000184B4FF4C3
:10060000004270B500205A60164D174C174EA8478F
:100610000120A8470520A847154B002098471548FA
:10062000A047154B00209847144B3E2101209847C6
:10063000B0470028FCD0124B00209847114B984738
:100640001148A047114A136823F0806313600B2000
:10065000A847BDE870400E4B4FF060510F2018477F
:1006600050140E40A50B4000610A4000950B40005D
:10067000E50B4000000E2707C50A4000490B40006B
:10068000050B40009509400010757000000A0E40EF
:10069000E90840001FB5104B104C4FF41642CDE94D
:1006A00001324FF40063039308200D4B984701A9D2
:1006B0000C4B2046984720460B4B98470B4B204647
:1006C00098470B4C0B490920A0474FF000610A20C6
:1006D000A04704B010BD00BF90AD710000060E40F1
:1006E000A50B400099074000D3074000CD0740000C
:1006F000E90840000100000870B5044E044D0446AE
:1007000021463046A8470028FAD170BD00060E40A9
:10071000D907400037B5064D064C0DF107012846B4
:10072000A0470028F9D19DF8070003B030BD00BFF5
:1007300000060E40E707400010B5054B0B20984718
:10074000BDE81040034B4FF040510720184700BF51
:10075000A50B4000E908400010B5054B072098475D
:10076000BDE81040034B4FF040510720184700BF31
:10077000CF084000E908400010B5054B0720984716
:10078000BDE81040034B4FF060510720184700BFF1
:10079000B5084000E9084000AC2310B50360D1E97A
:1007A0000032B3FBF2F31B095C1E4FF6FE7294425B
:1007B0000AD803628B68436040F20223C0F82031FC
:1007C00050230360002010BD0120FCE7402303609C
:1007D000704710230360704743699B0746BFC161A0
:1007E0000020012070474369DB0743BF83690B701A
:1007F000002001207047B1F1C05F426426D007D8C5
:10080000B1F1006F12D0B1F1805F1CD061B97047B7
:10081000B1F1005F23D007D3B1F1405F05D021F0E3
:100820008051B1F1205F00D042607047016F036FCB
:100830000B4023EA02030367416F436F0B4023EA37
:1008400002034367F0E7036F1343F4E7016F036F9D
:100850000B4023EA02030367436F1343F1E7036F7F
:100860001343F8E7D30741644CBF4166016612F0B9
:100870000A0F14BF01624162930704D5C0F88010CB
:10088000416101607047130748BFC0F88410F7E763
:1008900010B5029C41643CB141663BB101653AB17F
:1008A00001630161016010BD0166F6E74165F6E78D
:1008B0004163F6E7430903F5001303F207735B0294
:1008C00000F01F00012202FA00F01863704743098C
:1008D00003F5001303F207735B0200F01F0001220F
:1008E00002FA00F05863704773B5044640090D469C
:1008F00000F5001001F0F04100F20770B1F1005F67
:100900004FEA40201ED00CD8B1F1805F1AD0B1F16F
:10091000C05F17D0B1F1006F14D00026304602B08E
:1009200070BD05F0E043B3F1405F19D0B1F1205F35
:10093000F3D104F01F040126134B2A4606FA04F1F2
:100940009847EBE704F01F02012404FA02F20F4B70
:10095000984715EA040612BF426602662646DDE79E
:1009600005F06052012602F1484105EA06034A42B9
:1009700004F01F0400934A41C5F3800306FA04F112
:10098000034CA047CAE700BF65084000F7074000D6
:100990009108400010B52C4A2C4B116B01F003015B
:1009A00001292AD0023901291DD8116ACC0148D465
:1009B00027491960116A01F0700110293ED02029E1
:1009C0003FD0106B196800F0030002280BBF946A37
:1009D000D46A906AD06AC4F30A4404FB0111C0B21D
:1009E000B1FBF0F107E01B49496908064CBF4FF421
:1009F00000414FF4FA4119600DE0116AC90101D5B7
:100A00001549F8E712491960116A01F070011029BF
:100A100012D02029F4D0106B196800F070007028F3
:100A20001BBF126BC2F30212032221FA02F208BFAB
:100A3000B1FBF2F21A6010BD0849DCE70749196002
:100A4000BFE70549FBE700BF00040E40040000209B
:100A500000093D0010140E40001BB70000127A0080
:100A60000E4B98420E4B03D84FF080621A607047CD
:100A70000C4A904201D20C4AF8E70C4A904201D24B
:100A80000B4AF3E70B4A904201D80B4AEEE70B4AB8
:100A900090428CBF0A4A4FF00422E7E7FF2C310155
:100AA000000A0E40005A620200010004008793030E
:100AB00000020004FFB3C40400030004FFE0F505D6
:100AC000000500040E4B1A6B22F003021A6340F675
:100AD0000102996E09070BD51A6B22F070021043C0
:100AE000186340F60102996E090705D5002070478A
:100AF000013AEED101207047013AF4D1FAE700BF84
:100B000000040E400F4B1A6B22F0030242F0010268
:100B10001A6340F60102996E09070BD51A6B22F091
:100B200070021043186340F60102996E090705D55B
:100B300000207047013AEED101207047013AF4D10C
:100B4000FAE700BF00040E400F4A30B1136A0F49A4
:100B500019400F4B0B4313627047106A0B0220F4CD
:100B60005C119BB221F003010B4343F45C1343F08F
:100B700001031362936EDB07FCD5136A43F09B738A
:100B800043F48033E7E700BF00040E40FCFFC8FEDB
:100B900002003701024B986E00F48030704700BFAE
:100BA00000040E40222818D81F280D4A4FF00103D8
:100BB00008D8916903FA00F030EA010300D010610F
:100BC00000207047D2F80811203803FA00F030EA0C
:100BD0000103F5D0C2F80001F2E70120704700BF21
:100BE00000040E40034B18B1034AC3F8E4207047D9
:100BF000024AFAE700040E4001434D5000434D50B5
:100C0000F7B52B4B2B4A1B6803F1100118781070B5
:100C10005878507098789070D878D07004338B42A0
:100C200002F10402F2D1244B2449254C042201AEE6
:100C30001D46042015F8017B06F8017B0138F9D127
:100C4000900716D19DF804509DF807604D5D9DF802
:100C500005008DF8075095089DF80670085C655DE5
:100C6000CF5D8E5D8DF8057068408DF806608DF85B
:100C7000040013F80C0C9DF80450684018719DF89E
:100C8000055013F80B0C684058719DF8065013F886
:100C90000A0C684098719DF8075013F8090C01324E
:100CA00068402C2AD87103F10403C0D103B0F0BD11
:100CB00034020020380200204402002013000020EB
:100CC00008000020F0B50B4B0B4E196800010A1DFF
:100CD0001431131F35181C7815F8017B7C4003F87C
:100CE000014B9342F7D11A1D8A4200F10400F0D162
:100CF000F0BD00BFF80200203802002010B5084BFC
:100D000008481B68191D002213F82240045D03F8EF
:100D100022400132042AF7D101338B42F3D110BDB6
:100D2000F8020020130000200D4B1B6859795A78F7
:100D30005970597A5971597B5972997A5A739A78BC
:100D40009970997B9A729A799971D97B9A73DA78AA
:100D5000D970D97AD973D979D972DA71704700BF4D
:100D6000F8020020C3095A00134403EBC30383EACB
:100D70004000C0B2704700002DE9F04F85B0264D0D
:100D8000DFF8A0A00020A84701240195D047234BFD
:100D9000DFF894B09847224B196801F110030293D1
:100DA00091F800904E788D7891F8038089EA0600DA
:100DB00085EA080282EA00070392D84789EA000020
:100DC0007840087086EA0500D847039A46407E407E
:100DD0004E701046D84745407D408D7089EA080026
:100DE000D84788EA0008029B87EA0807CF700431D9
:100DF0009942D5D120460134019BE4B298470A2C90
:100E0000C4D1084B9847054B9847019B204605B035
:100E1000BDE8F04F184700BFC50C4000290D400049
:100E2000F8020020FD0C4000650D40004B1E01380B
:100E30000F3113F8012F00F8012F8B42F9D17047C1
:100E4000014B1860014B184734020020010C400090
:100E500010B5054B01461860044B05489847BDE89E
:100E60001040044B184700BFF80200202D0E400030
:100E7000E8020020790D400070470000004B184741
:100E8000410E4000004B1847510E4000704770471C
:100E90007047000070B50D4E0D4D761BB61006D094
:100EA0000024013455F8043B9847A642F9D1094E75
:100EB000094D761B00F024F8B61006D0002401344A
:100EC00055F8043B9847A642F9D170BD0C0F40007D
:100ED0000C0F4000100F40000C0F40002B7E151629
:100EE00028AED2A6ABF7158809CF4F3C003031327F
:100EF00033343536373839414243444546000000E3
:100F0000F8B500BFF8BC08BC9E46704735014000EC
:100F1000F8B500BFF8BC08BC9E4670470D01400004
:100F20000A00000000093D008D0102040810204065
:100F3000801B36637C777BF26B6FC53001672BFEBD
:100F4000D7AB76CA82C97DFA5947F0ADD4A2AF9C1F
:100F5000A472C0B7FD9326363FF7CC34A5E5F171F6
:100F6000D8311504C723C31896059A071280E2EBFF
:100F700027B27509832C1A1B6E5AA0523BD6B3298F
:100F8000E32F8453D100ED20FCB15B6ACBBE394A1C
:100F90004C58CFD0EFAAFB434D338545F9027F5023
:100FA0003C9FA851A3408F929D38F5BCB6DA211022
:100FB000FFF3D2CD0C13EC5F974417C4A77E3D64BA
:100FC0005D197360814FDC222A908846EEB814DEEA
:100FD0005E0BDBE0323A0A4906245CC2D3AC629174
:100FE00095E479E7C8376D8DD54EA96C56F4EA655E
:100FF0007AAE08BA78252E1CA6B4C6E8DD741F4B5D
:10100000BD8B8A703EB5664803F60E613557B986CA
:10101000C11D9EE1F8981169D98E949B1E87E9CE77
:101020005528DF8CA1890DBFE6426841992D0FB08C
:0410300054BB160097
:040000050040058131
:00000001FF
